{
  "_format": "hh-sol-artifact-1",
  "contractName": "Token",
  "sourceName": "contracts/Token.sol",
  "abi": [
    {
      "inputs": [
        {
          "internalType": "uint256",
          "name": "initialSupply",
          "type": "uint256"
        }
      ],
      "stateMutability": "nonpayable",
      "type": "constructor"
    },
    {
      "anonymous": false,
      "inputs": [
        {
          "indexed": false,
          "internalType": "address",
          "name": "owner",
          "type": "address"
        },
        {
          "indexed": false,
          "internalType": "address",
          "name": "spender",
          "type": "address"
        },
        {
          "indexed": false,
          "internalType": "uint256",
          "name": "value",
          "type": "uint256"
        }
      ],
      "name": "Approval",
      "type": "event"
    },
    {
      "anonymous": false,
      "inputs": [
        {
          "indexed": false,
          "internalType": "address",
          "name": "from",
          "type": "address"
        },
        {
          "indexed": false,
          "internalType": "address",
          "name": "to",
          "type": "address"
        },
        {
          "indexed": false,
          "internalType": "uint256",
          "name": "value",
          "type": "uint256"
        }
      ],
      "name": "Transfer",
      "type": "event"
    },
    {
      "anonymous": false,
      "inputs": [
        {
          "indexed": false,
          "internalType": "address",
          "name": "_whoRemovedAddres",
          "type": "address"
        },
        {
          "indexed": false,
          "internalType": "address",
          "name": "_removedAddress",
          "type": "address"
        }
      ],
      "name": "removedFromWhitelist",
      "type": "event"
    },
    {
      "anonymous": false,
      "inputs": [
        {
          "indexed": false,
          "internalType": "address",
          "name": "_whoAddedAddres",
          "type": "address"
        },
        {
          "indexed": false,
          "internalType": "address",
          "name": "_addedAddress",
          "type": "address"
        }
      ],
      "name": "whiteListed",
      "type": "event"
    },
    {
      "inputs": [
        {
          "internalType": "address",
          "name": "",
          "type": "address"
        },
        {
          "internalType": "address",
          "name": "",
          "type": "address"
        }
      ],
      "name": "_allowances",
      "outputs": [
        {
          "internalType": "uint256",
          "name": "",
          "type": "uint256"
        }
      ],
      "stateMutability": "view",
      "type": "function"
    },
    {
      "inputs": [
        {
          "internalType": "address",
          "name": "_tokenShopAddress",
          "type": "address"
        },
        {
          "internalType": "uint256",
          "name": "_tokensToBurn",
          "type": "uint256"
        }
      ],
      "name": "_burn",
      "outputs": [],
      "stateMutability": "nonpayable",
      "type": "function"
    },
    {
      "inputs": [
        {
          "internalType": "address",
          "name": "_tokenShopAddress",
          "type": "address"
        },
        {
          "internalType": "uint256",
          "name": "_tokensToMint",
          "type": "uint256"
        }
      ],
      "name": "_mint",
      "outputs": [],
      "stateMutability": "nonpayable",
      "type": "function"
    },
    {
      "inputs": [],
      "name": "_name",
      "outputs": [
        {
          "internalType": "string",
          "name": "",
          "type": "string"
        }
      ],
      "stateMutability": "view",
      "type": "function"
    },
    {
      "inputs": [],
      "name": "_symbol",
      "outputs": [
        {
          "internalType": "string",
          "name": "",
          "type": "string"
        }
      ],
      "stateMutability": "view",
      "type": "function"
    },
    {
      "inputs": [],
      "name": "_totalTokenSupply",
      "outputs": [
        {
          "internalType": "uint256",
          "name": "",
          "type": "uint256"
        }
      ],
      "stateMutability": "view",
      "type": "function"
    },
    {
      "inputs": [
        {
          "internalType": "address",
          "name": "_addressToWhitelist",
          "type": "address"
        }
      ],
      "name": "addAddressesToWhitelist",
      "outputs": [],
      "stateMutability": "nonpayable",
      "type": "function"
    },
    {
      "inputs": [
        {
          "internalType": "address",
          "name": "_owner",
          "type": "address"
        },
        {
          "internalType": "address",
          "name": "_spender",
          "type": "address"
        }
      ],
      "name": "allowance",
      "outputs": [
        {
          "internalType": "uint256",
          "name": "",
          "type": "uint256"
        }
      ],
      "stateMutability": "view",
      "type": "function"
    },
    {
      "inputs": [
        {
          "internalType": "address",
          "name": "_spender",
          "type": "address"
        },
        {
          "internalType": "uint256",
          "name": "_amount",
          "type": "uint256"
        }
      ],
      "name": "approve",
      "outputs": [],
      "stateMutability": "nonpayable",
      "type": "function"
    },
    {
      "inputs": [
        {
          "internalType": "address",
          "name": "_account",
          "type": "address"
        }
      ],
      "name": "balanceOf",
      "outputs": [
        {
          "internalType": "uint256",
          "name": "",
          "type": "uint256"
        }
      ],
      "stateMutability": "view",
      "type": "function"
    },
    {
      "inputs": [
        {
          "internalType": "address",
          "name": "",
          "type": "address"
        }
      ],
      "name": "balances",
      "outputs": [
        {
          "internalType": "uint256",
          "name": "",
          "type": "uint256"
        }
      ],
      "stateMutability": "view",
      "type": "function"
    },
    {
      "inputs": [],
      "name": "decimals",
      "outputs": [
        {
          "internalType": "uint256",
          "name": "",
          "type": "uint256"
        }
      ],
      "stateMutability": "pure",
      "type": "function"
    },
    {
      "inputs": [
        {
          "internalType": "address",
          "name": "_addressToWhitelist",
          "type": "address"
        }
      ],
      "name": "deleteAddressesFromWhitelist",
      "outputs": [],
      "stateMutability": "nonpayable",
      "type": "function"
    },
    {
      "inputs": [],
      "name": "name",
      "outputs": [
        {
          "internalType": "string",
          "name": "",
          "type": "string"
        }
      ],
      "stateMutability": "view",
      "type": "function"
    },
    {
      "inputs": [],
      "name": "owner",
      "outputs": [
        {
          "internalType": "address",
          "name": "",
          "type": "address"
        }
      ],
      "stateMutability": "view",
      "type": "function"
    },
    {
      "inputs": [],
      "name": "ownerAddress",
      "outputs": [
        {
          "internalType": "address",
          "name": "",
          "type": "address"
        }
      ],
      "stateMutability": "view",
      "type": "function"
    },
    {
      "inputs": [],
      "name": "symbol",
      "outputs": [
        {
          "internalType": "string",
          "name": "",
          "type": "string"
        }
      ],
      "stateMutability": "view",
      "type": "function"
    },
    {
      "inputs": [],
      "name": "totalTokenSupply",
      "outputs": [
        {
          "internalType": "uint256",
          "name": "",
          "type": "uint256"
        }
      ],
      "stateMutability": "view",
      "type": "function"
    },
    {
      "inputs": [
        {
          "internalType": "address",
          "name": "_to",
          "type": "address"
        },
        {
          "internalType": "uint256",
          "name": "_amount",
          "type": "uint256"
        }
      ],
      "name": "transfer",
      "outputs": [],
      "stateMutability": "nonpayable",
      "type": "function"
    },
    {
      "inputs": [
        {
          "internalType": "address",
          "name": "_from",
          "type": "address"
        },
        {
          "internalType": "address",
          "name": "_to",
          "type": "address"
        },
        {
          "internalType": "uint256",
          "name": "_amount",
          "type": "uint256"
        }
      ],
      "name": "transferFrom",
      "outputs": [],
      "stateMutability": "nonpayable",
      "type": "function"
    },
    {
      "inputs": [
        {
          "internalType": "address",
          "name": "_whitelistedAddresses",
          "type": "address"
        }
      ],
      "name": "verifyAddressesFromWhitelist",
      "outputs": [
        {
          "internalType": "bool",
          "name": "",
          "type": "bool"
        }
      ],
      "stateMutability": "view",
      "type": "function"
    }
  ],
  "bytecode": "0x60806040523480156200001157600080fd5b506040516200229f3803806200229f83398181016040528101906200003791906200045c565b6040518060400160405280600681526020017f496e7465726e00000000000000000000000000000000000000000000000000008152506040518060400160405280600381526020017f494e540000000000000000000000000000000000000000000000000000000000815250336000806101000a81548173ffffffffffffffffffffffffffffffffffffffff021916908373ffffffffffffffffffffffffffffffffffffffff1602179055508160039080519060200190620000fb9291906200036c565b508060049080519060200190620001149291906200036c565b50600060058190555050506001600660008060009054906101000a900473ffffffffffffffffffffffffffffffffffffffff1673ffffffffffffffffffffffffffffffffffffffff1673ffffffffffffffffffffffffffffffffffffffff16815260200190815260200160002060006101000a81548160ff021916908315150217905550620001aa3382620001b160201b60201c565b5062000707565b81600073ffffffffffffffffffffffffffffffffffffffff168173ffffffffffffffffffffffffffffffffffffffff16141562000225576040517f08c379a00000000000000000000000000000000000000000000000000000000081526004016200021c90620004ef565b60405180910390fd5b33600660008273ffffffffffffffffffffffffffffffffffffffff1673ffffffffffffffffffffffffffffffffffffffff16815260200190815260200160002060009054906101000a900460ff16620002b5576040517f08c379a0000000000000000000000000000000000000000000000000000000008152600401620002ac9062000561565b60405180910390fd5b8260056000828254620002c99190620005b2565b9250508190555082600160008673ffffffffffffffffffffffffffffffffffffffff1673ffffffffffffffffffffffffffffffffffffffff1681526020019081526020016000206000828254620003219190620005b2565b925050819055507fddf252ad1be2c89b69c2b068fc378daa952ba7f163c4a11628f55a4df523b3ef600085856040516200035e9392919062000665565b60405180910390a150505050565b8280546200037a90620006d1565b90600052602060002090601f0160209004810192826200039e5760008555620003ea565b82601f10620003b957805160ff1916838001178555620003ea565b82800160010185558215620003ea579182015b82811115620003e9578251825591602001919060010190620003cc565b5b509050620003f99190620003fd565b5090565b5b8082111562000418576000816000905550600101620003fe565b5090565b600080fd5b6000819050919050565b620004368162000421565b81146200044257600080fd5b50565b60008151905062000456816200042b565b92915050565b6000602082840312156200047557620004746200041c565b5b6000620004858482850162000445565b91505092915050565b600082825260208201905092915050565b7f54686973206973207a65726f2061646472657373202845524332302900000000600082015250565b6000620004d7601c836200048e565b9150620004e4826200049f565b602082019050919050565b600060208201905081810360008301526200050a81620004c8565b9050919050565b7f596f75206e65656420746f2062652077686974656c6973746564000000000000600082015250565b600062000549601a836200048e565b9150620005568262000511565b602082019050919050565b600060208201905081810360008301526200057c816200053a565b9050919050565b7f4e487b7100000000000000000000000000000000000000000000000000000000600052601160045260246000fd5b6000620005bf8262000421565b9150620005cc8362000421565b9250827fffffffffffffffffffffffffffffffffffffffffffffffffffffffffffffffff0382111562000604576200060362000583565b5b828201905092915050565b600073ffffffffffffffffffffffffffffffffffffffff82169050919050565b60006200063c826200060f565b9050919050565b6200064e816200062f565b82525050565b6200065f8162000421565b82525050565b60006060820190506200067c600083018662000643565b6200068b602083018562000643565b6200069a604083018462000654565b949350505050565b7f4e487b7100000000000000000000000000000000000000000000000000000000600052602260045260246000fd5b60006002820490506001821680620006ea57607f821691505b60208210811415620007015762000700620006a2565b5b50919050565b611b8880620007176000396000f3fe608060405234801561001057600080fd5b50600436106101375760003560e01c80634e6ec247116100b857806395d89b411161007c57806395d89b4114610328578063a9059cbb14610346578063b09f126614610362578063d28d885214610380578063dd62ed3e1461039e578063fdab3a88146103ce57610137565b80634e6ec247146102845780636161eb18146102a057806370a08231146102bc5780638da5cb5b146102ec5780638f84aa091461030a57610137565b806316449234116100ff57806316449234146101e05780631ca8b6cb146101fc57806323b872dd1461021a57806327e235e314610236578063313ce5671461026657610137565b8063024c2ddd1461013c57806306fdde031461016c578063095ea7b31461018a57806309d8fe1a146101a6578063115e9f69146101c2575b600080fd5b610156600480360381019061015191906115ad565b6103fe565b6040516101639190611606565b60405180910390f35b610174610423565b60405161018191906116ba565b60405180910390f35b6101a4600480360381019061019f9190611708565b6104b5565b005b6101c060048036038101906101bb9190611748565b6104c4565b005b6101ca6105e6565b6040516101d79190611606565b60405180910390f35b6101fa60048036038101906101f59190611748565b6105ec565b005b61020461070e565b6040516102119190611606565b60405180910390f35b610234600480360381019061022f9190611775565b610718565b005b610250600480360381019061024b9190611748565b610a01565b60405161025d9190611606565b60405180910390f35b61026e610a19565b60405161027b9190611606565b60405180910390f35b61029e60048036038101906102999190611708565b610a22565b005b6102ba60048036038101906102b59190611708565b610bd1565b005b6102d660048036038101906102d19190611748565b610d80565b6040516102e39190611606565b60405180910390f35b6102f4610dc9565b60405161030191906117d7565b60405180910390f35b610312610ded565b60405161031f91906117d7565b60405180910390f35b610330610e16565b60405161033d91906116ba565b60405180910390f35b610360600480360381019061035b9190611708565b610ea8565b005b61036a611119565b60405161037791906116ba565b60405180910390f35b6103886111a7565b60405161039591906116ba565b60405180910390f35b6103b860048036038101906103b391906115ad565b611235565b6040516103c59190611606565b60405180910390f35b6103e860048036038101906103e39190611748565b6112bc565b6040516103f5919061180d565b60405180910390f35b6002602052816000526040600020602052806000526040600020600091509150505481565b60606003805461043290611857565b80601f016020809104026020016040519081016040528092919081815260200182805461045e90611857565b80156104ab5780601f10610480576101008083540402835291602001916104ab565b820191906000526020600020905b81548152906001019060200180831161048e57829003601f168201915b5050505050905090565b6104c0338383611317565b5050565b33600660008273ffffffffffffffffffffffffffffffffffffffff1673ffffffffffffffffffffffffffffffffffffffff16815260200190815260200160002060009054906101000a900460ff16610551576040517f08c379a0000000000000000000000000000000000000000000000000000000008152600401610548906118d5565b60405180910390fd5b6000600660008473ffffffffffffffffffffffffffffffffffffffff1673ffffffffffffffffffffffffffffffffffffffff16815260200190815260200160002060006101000a81548160ff0219169083151502179055507fa40839cd811e8920a9b40f9f1a58096a6228a28c35a7eaab7d359222efbf27d433836040516105da9291906118f5565b60405180910390a15050565b60055481565b33600660008273ffffffffffffffffffffffffffffffffffffffff1673ffffffffffffffffffffffffffffffffffffffff16815260200190815260200160002060009054906101000a900460ff16610679576040517f08c379a0000000000000000000000000000000000000000000000000000000008152600401610670906118d5565b60405180910390fd5b6001600660008473ffffffffffffffffffffffffffffffffffffffff1673ffffffffffffffffffffffffffffffffffffffff16815260200190815260200160002060006101000a81548160ff0219169083151502179055507f284809c271ef49ba87d41c93746ed39ad8a90c0c8e5f65a77972b80caacef59133836040516107029291906118f5565b60405180910390a15050565b6000600554905090565b82600073ffffffffffffffffffffffffffffffffffffffff168173ffffffffffffffffffffffffffffffffffffffff161415610789576040517f08c379a00000000000000000000000000000000000000000000000000000000081526004016107809061196a565b60405180910390fd5b82600073ffffffffffffffffffffffffffffffffffffffff168173ffffffffffffffffffffffffffffffffffffffff1614156107fa576040517f08c379a00000000000000000000000000000000000000000000000000000000081526004016107f19061196a565b60405180910390fd5b848380600160008473ffffffffffffffffffffffffffffffffffffffff1673ffffffffffffffffffffffffffffffffffffffff16815260200190815260200160002054101561087e576040517f08c379a0000000000000000000000000000000000000000000000000000000008152600401610875906119d6565b60405180910390fd5b84600260008973ffffffffffffffffffffffffffffffffffffffff1673ffffffffffffffffffffffffffffffffffffffff16815260200190815260200160002060008873ffffffffffffffffffffffffffffffffffffffff1673ffffffffffffffffffffffffffffffffffffffff168152602001908152602001600020600082825461090a9190611a25565b9250508190555084600160008973ffffffffffffffffffffffffffffffffffffffff1673ffffffffffffffffffffffffffffffffffffffff16815260200190815260200160002060008282546109609190611a7b565b9250508190555084600160008873ffffffffffffffffffffffffffffffffffffffff1673ffffffffffffffffffffffffffffffffffffffff16815260200190815260200160002060008282546109b69190611a25565b925050819055507fddf252ad1be2c89b69c2b068fc378daa952ba7f163c4a11628f55a4df523b3ef8787876040516109f093929190611aaf565b60405180910390a150505050505050565b60016020528060005260406000206000915090505481565b60006012905090565b81600073ffffffffffffffffffffffffffffffffffffffff168173ffffffffffffffffffffffffffffffffffffffff161415610a93576040517f08c379a0000000000000000000000000000000000000000000000000000000008152600401610a8a9061196a565b60405180910390fd5b33600660008273ffffffffffffffffffffffffffffffffffffffff1673ffffffffffffffffffffffffffffffffffffffff16815260200190815260200160002060009054906101000a900460ff16610b20576040517f08c379a0000000000000000000000000000000000000000000000000000000008152600401610b17906118d5565b60405180910390fd5b8260056000828254610b329190611a25565b9250508190555082600160008673ffffffffffffffffffffffffffffffffffffffff1673ffffffffffffffffffffffffffffffffffffffff1681526020019081526020016000206000828254610b889190611a25565b925050819055507fddf252ad1be2c89b69c2b068fc378daa952ba7f163c4a11628f55a4df523b3ef60008585604051610bc393929190611aaf565b60405180910390a150505050565b81600073ffffffffffffffffffffffffffffffffffffffff168173ffffffffffffffffffffffffffffffffffffffff161415610c42576040517f08c379a0000000000000000000000000000000000000000000000000000000008152600401610c399061196a565b60405180910390fd5b33600660008273ffffffffffffffffffffffffffffffffffffffff1673ffffffffffffffffffffffffffffffffffffffff16815260200190815260200160002060009054906101000a900460ff16610ccf576040517f08c379a0000000000000000000000000000000000000000000000000000000008152600401610cc6906118d5565b60405180910390fd5b8260056000828254610ce19190611a7b565b9250508190555082600160008673ffffffffffffffffffffffffffffffffffffffff1673ffffffffffffffffffffffffffffffffffffffff1681526020019081526020016000206000828254610d379190611a7b565b925050819055507fddf252ad1be2c89b69c2b068fc378daa952ba7f163c4a11628f55a4df523b3ef84600085604051610d7293929190611aaf565b60405180910390a150505050565b6000600160008373ffffffffffffffffffffffffffffffffffffffff1673ffffffffffffffffffffffffffffffffffffffff168152602001908152602001600020549050919050565b60008054906101000a900473ffffffffffffffffffffffffffffffffffffffff1681565b60008060009054906101000a900473ffffffffffffffffffffffffffffffffffffffff16905090565b606060048054610e2590611857565b80601f0160208091040260200160405190810160405280929190818152602001828054610e5190611857565b8015610e9e5780601f10610e7357610100808354040283529160200191610e9e565b820191906000526020600020905b815481529060010190602001808311610e8157829003601f168201915b5050505050905090565b3373ffffffffffffffffffffffffffffffffffffffff1660008054906101000a900473ffffffffffffffffffffffffffffffffffffffff1673ffffffffffffffffffffffffffffffffffffffff1614610f36576040517f08c379a0000000000000000000000000000000000000000000000000000000008152600401610f2d90611b32565b60405180910390fd5b81600073ffffffffffffffffffffffffffffffffffffffff168173ffffffffffffffffffffffffffffffffffffffff161415610fa7576040517f08c379a0000000000000000000000000000000000000000000000000000000008152600401610f9e9061196a565b60405180910390fd5b338280600160008473ffffffffffffffffffffffffffffffffffffffff1673ffffffffffffffffffffffffffffffffffffffff16815260200190815260200160002054101561102b576040517f08c379a0000000000000000000000000000000000000000000000000000000008152600401611022906119d6565b60405180910390fd5b83600160003373ffffffffffffffffffffffffffffffffffffffff1673ffffffffffffffffffffffffffffffffffffffff168152602001908152602001600020600082825461107a9190611a7b565b9250508190555083600160008773ffffffffffffffffffffffffffffffffffffffff1673ffffffffffffffffffffffffffffffffffffffff16815260200190815260200160002060008282546110d09190611a25565b925050819055507fddf252ad1be2c89b69c2b068fc378daa952ba7f163c4a11628f55a4df523b3ef33868660405161110a93929190611aaf565b60405180910390a15050505050565b6004805461112690611857565b80601f016020809104026020016040519081016040528092919081815260200182805461115290611857565b801561119f5780601f106111745761010080835404028352916020019161119f565b820191906000526020600020905b81548152906001019060200180831161118257829003601f168201915b505050505081565b600380546111b490611857565b80601f01602080910402602001604051908101604052809291908181526020018280546111e090611857565b801561122d5780601f106112025761010080835404028352916020019161122d565b820191906000526020600020905b81548152906001019060200180831161121057829003601f168201915b505050505081565b6000600260008473ffffffffffffffffffffffffffffffffffffffff1673ffffffffffffffffffffffffffffffffffffffff16815260200190815260200160002060008373ffffffffffffffffffffffffffffffffffffffff1673ffffffffffffffffffffffffffffffffffffffff16815260200190815260200160002054905092915050565b600080600660008473ffffffffffffffffffffffffffffffffffffffff1673ffffffffffffffffffffffffffffffffffffffff16815260200190815260200160002060009054906101000a900460ff16905080915050919050565b3373ffffffffffffffffffffffffffffffffffffffff1660008054906101000a900473ffffffffffffffffffffffffffffffffffffffff1673ffffffffffffffffffffffffffffffffffffffff16146113a5576040517f08c379a000000000000000000000000000000000000000000000000000000000815260040161139c90611b32565b60405180910390fd5b82600073ffffffffffffffffffffffffffffffffffffffff168173ffffffffffffffffffffffffffffffffffffffff161415611416576040517f08c379a000000000000000000000000000000000000000000000000000000000815260040161140d9061196a565b60405180910390fd5b82600073ffffffffffffffffffffffffffffffffffffffff168173ffffffffffffffffffffffffffffffffffffffff161415611487576040517f08c379a000000000000000000000000000000000000000000000000000000000815260040161147e9061196a565b60405180910390fd5b82600260008773ffffffffffffffffffffffffffffffffffffffff1673ffffffffffffffffffffffffffffffffffffffff16815260200190815260200160002060008673ffffffffffffffffffffffffffffffffffffffff1673ffffffffffffffffffffffffffffffffffffffff168152602001908152602001600020819055507f8c5be1e5ebec7d5bd14f71427d1e84f3dd0314c0f7b2291e5b200ac8c7c3b92585858560405161153b93929190611aaf565b60405180910390a15050505050565b600080fd5b600073ffffffffffffffffffffffffffffffffffffffff82169050919050565b600061157a8261154f565b9050919050565b61158a8161156f565b811461159557600080fd5b50565b6000813590506115a781611581565b92915050565b600080604083850312156115c4576115c361154a565b5b60006115d285828601611598565b92505060206115e385828601611598565b9150509250929050565b6000819050919050565b611600816115ed565b82525050565b600060208201905061161b60008301846115f7565b92915050565b600081519050919050565b600082825260208201905092915050565b60005b8381101561165b578082015181840152602081019050611640565b8381111561166a576000848401525b50505050565b6000601f19601f8301169050919050565b600061168c82611621565b611696818561162c565b93506116a681856020860161163d565b6116af81611670565b840191505092915050565b600060208201905081810360008301526116d48184611681565b905092915050565b6116e5816115ed565b81146116f057600080fd5b50565b600081359050611702816116dc565b92915050565b6000806040838503121561171f5761171e61154a565b5b600061172d85828601611598565b925050602061173e858286016116f3565b9150509250929050565b60006020828403121561175e5761175d61154a565b5b600061176c84828501611598565b91505092915050565b60008060006060848603121561178e5761178d61154a565b5b600061179c86828701611598565b93505060206117ad86828701611598565b92505060406117be868287016116f3565b9150509250925092565b6117d18161156f565b82525050565b60006020820190506117ec60008301846117c8565b92915050565b60008115159050919050565b611807816117f2565b82525050565b600060208201905061182260008301846117fe565b92915050565b7f4e487b7100000000000000000000000000000000000000000000000000000000600052602260045260246000fd5b6000600282049050600182168061186f57607f821691505b6020821081141561188357611882611828565b5b50919050565b7f596f75206e65656420746f2062652077686974656c6973746564000000000000600082015250565b60006118bf601a8361162c565b91506118ca82611889565b602082019050919050565b600060208201905081810360008301526118ee816118b2565b9050919050565b600060408201905061190a60008301856117c8565b61191760208301846117c8565b9392505050565b7f54686973206973207a65726f2061646472657373202845524332302900000000600082015250565b6000611954601c8361162c565b915061195f8261191e565b602082019050919050565b6000602082019050818103600083015261198381611947565b9050919050565b7f4e6f7420656e6f7567682062616c616e63652028455243323029000000000000600082015250565b60006119c0601a8361162c565b91506119cb8261198a565b602082019050919050565b600060208201905081810360008301526119ef816119b3565b9050919050565b7f4e487b7100000000000000000000000000000000000000000000000000000000600052601160045260246000fd5b6000611a30826115ed565b9150611a3b836115ed565b9250827fffffffffffffffffffffffffffffffffffffffffffffffffffffffffffffffff03821115611a7057611a6f6119f6565b5b828201905092915050565b6000611a86826115ed565b9150611a91836115ed565b925082821015611aa457611aa36119f6565b5b828203905092915050565b6000606082019050611ac460008301866117c8565b611ad160208301856117c8565b611ade60408301846115f7565b949350505050565b7f496e76616c6964206f776e657220284552433230290000000000000000000000600082015250565b6000611b1c60158361162c565b9150611b2782611ae6565b602082019050919050565b60006020820190508181036000830152611b4b81611b0f565b905091905056fea2646970667358221220c159641d2a20b5e8e385be1af733ea2d7dd10ce905997c06762fecc5d09ec7d564736f6c63430008090033",
  "linkReferences": {},
  "deployedLinkReferences": {}
}